:020000040800F2
:10000000801E002071290008F1040008F304000894
:10001000F7040008FB040008FF04000800000000CB
:1000200000000000000000000000000003050008C0
:100030000505000800000000717D0008E9260008A1
:100040008B2900088B2900088B2900088B290008C0
:100050008B2900088B2900088B2900088B290008B0
:100060008B2900088B2900088B2900088B290008A0
:100070008B2900088B2900088B2900088B29000890
:100080008B2900088B2900088B2900088B29000880
:100090008B2900088B2900088B2900088B29000870
:1000A0008B2900088B2900088B2900088B29000860
:1000B0008B2900082B0800088B2900088B290008D1
:1000C0008B2900088B2900088B2900088B29000840
:1000D0008B290008C7280008611500088B29000833
:1000E0008B2900088B2900088B2900088B29000820
:1000F0008B2900088B2900088B2900088B29000810
:100100008B2900088B2900088B2900088B290008FF
:100110008B2900088B2900088B2900088B290008EF
:100120008B2900088B2900088B2900088B290008DF
:100130008B2900088B2900088B2900088B290008CF
:100140008B2900088B2900088B2900088B290008BF
:100150008B2900088B2900088B2900088B290008AF
:100160008B2900088B2900088B2900088B2900089F
:100170008B2900088B2900088B2900088B2900088F
:100180008B2900088B29000800F002F800F064F8C1
:100190000AA090E8000C82448344AAF10107DA45E2
:1001A00001D100F059F8AFF2090EBAE80F0013F0D0
:1001B000010F18BFFB1A43F00103184730800000FD
:1001C000508000000A444FF0000C10F8013B13F07F
:1001D000070408BF10F8014B1D1108BF10F8015BA0
:1001E000641E05D010F8016B641E01F8016BF9D193
:1001F00013F0080F1EBF10F8014BAD1C0C1B09D1EA
:100200006D1E58BF01F801CBFAD505E014F8016B5B
:1002100001F8016B6D1EF9D59142D6D370470000ED
:100220000023002400250026103A28BF78C1FBD8FF
:10023000520728BF30C148BF0B607047642907F0E0
:100240003F86632907F0DF86002070471FB507F05F
:1002500047FF1FBD10B510BD07F010FF1146FFF797
:10026000F5FF00F07CF807F02EFF03B4FFF7F2FF74
:1002700003BC02F0BFFA000033E002F06DF801F0B9
:1002800040F948B101207D4908707D480021016096
:10029000416010207A4908727A480078322804DDDB
:1002A00000207849087075490870282002F078FA13
:1002B00075480068042808D101207449087000209E
:1002C000734908700320734908606F48006801286B
:1002D00007D100206D49087001206D4908706E49F2
:1002E0000860CAE70BE0022001F02BFA4FF480719E
:1002F0006A4802F0DAFC4FF4FA7002F051FAF2E7C1
:100300007FB50446002500BF07F00AFD05460A2315
:10031000634A0021AFF2330006F01EFD0823614A54
:100320000021AFF2AB0006F017FD03A85EA100228A
:10033000604BCDE900210290022204210A2007F03F
:1003400044F95D49086003A95B48006807F091FA29
:100350000C2006F081FF284607F0E6FC7FBD10B5B3
:10036000A82002F0CDF900F0D7F901F00BFC01F064
:10037000B3F801F0ACFE4FF4E13002F052FA4FF462
:10038000165001F00FF94FF4FA6002F009FA00F08C
:1003900004FC05F066F80C23484A0021AFF29F00E8
:1003A00006F0DAFC05F084F9002010BD10B5444ACF
:1003B0000521202001F020FD424A0921202001F0E2
:1003C00073FD40488178C07801EB00203E490880E9
:1003D00010BD2BE0FFF7EAFF3B4800884A280FDDFD
:1003E0003A480078401C39490870084600780528CA
:1003F00019DD01203649087005203449087012E0E3
:10040000314800884A280EDA30480078401E2F49CB
:10041000087008460078012805DA00202C49087089
:1004200001202A490870642002F0BAF9D2E723E0DB
:10043000B4220221E82002F02BF9642002F0B0F986
:100440000221E82002F001F92249088008460088CC
:100450004FF6FF7101EA00201E4908800321E820C1
:1004600002F0F3F81B49098808441A490880084635
:10047000018819A007F0BAFCDAE7000004000020A8
:1004800098010020030000202C000020070000201D
:100490000600002010000020AC0241420000024093
:1004A000E8030020E80400206374726C5F74696DD7
:1004B00000000000071400084C000020E8020020A3
:1004C00047000020E101002034000020000000204F
:1004D000010000203000002020446973745F536FD6
:1004E000756E64203D202564207C200D0A000000EC
:1004F000704700BFFEE700BFFEE700BFFEE700BF9A
:10050000FEE77047704700000CB500200190009096
:100510007648006840F480307449086000BF734832
:10052000006800F4003000900198401C0190009891
:1005300018B90198B0F5A04FF1D16C48006800F4EB
:10054000003010B10120009001E0002000900098E0
:10055000012846D165484030006840F0805063492A
:10056000403108606248006840F4404060490860DB
:100570005E48083000685D49083108600846006838
:1005800040F4004008600846006840F4A05008604D
:100590005848091F0860081F006840F08070091F54
:1005A000086000BF5148006800F000700028F9D0D2
:1005B00040F20570504908604C480830006820F04F
:1005C00003004A49083108600846006840F002000C
:1005D000086000BF45480830006800F00C0008289B
:1005E000F8D10CBD10B54548006840F4700043498F
:1005F00008603E48006840F001003C490860002067
:100600003A4908310860394800683D49084037498F
:1006100008603C48091D0860081F006820F480201D
:10062000091F0860002031490C310860FFF76CFF9A
:100630004FF0006031498039086010BD70B500206E
:100640000022022300240221284D08352D6805F0E0
:100650000C0020B1042806D0082834D107E02A4D28
:100660002A4E356033E02A4D284E35602FE01F4D6D
:100670002D1D2D68C5F380541C4D2D1D2D6805F0D2
:100680003F0154B1224DB5FBF1F5184E361D3668C9
:10069000C6F3881605FB06F209E01B4DB5FBF1F524
:1006A000124E361D3668C6F3881605FB06F20F4D4E
:1006B0002D1D2D68C5F301456D1C6B00B2FBF3F5D4
:1006C000124E356003E0104D104E356000BF00BF84
:1006D000064D08352D68C5F303150E4E705D0B4DA4
:1006E0002D68C540094E356070BD000000380240DD
:1006F0000070004008544007003C024088ED00E0D4
:10070000FFFFF6FE103000240024F400500000200B
:1007100000127A00540000201CB50121084602F0A6
:10072000DBFC4FF48070009001208DF80400002065
:100730008DF8060003208DF8050001208DF80700D4
:100740006946044802F02AFA4FF48071014802F029
:10075000A3FA1CBD0000024000B589B001210420AD
:1007600002F0BAFC0121022002F0FFFCC020079039
:1007700002208DF8200000208DF8220003208DF843
:10078000210000208DF8230007A97A4802F006FA1C
:1007900002220621774802F08CFA022207217548CE
:1007A00002F087FA0020ADF8180044F620600590AA
:1007B0005320ADF810000020ADF8120004A96E48D7
:1007C00003F081FF0020ADF804000320ADF80C0019
:1007D0000020ADF80600ADF80A000120ADF80800D1
:1007E00001A9654804F046FB0420ADF8040001A906
:1007F000614804F03FFB012203215F4804F004FC40
:100800001D208DF8000001208DF8030000208DF8D8
:10081000010002208DF80200684602F0CEF80121A6
:10082000554803F0D9FF09B000BD10B504F031FE02
:100830000121514804F0FFFB30B101214E4804F082
:10084000F7FB01204D49087002214B4804F0F3FBEF
:10085000002815D00221484804F0EAFB4021454811
:1008600002F0FEF901280CD10020444908704248EA
:1008700004F07EFB4249086002213F4804F0C7F9BA
:1008800073E03E48007801280ED100203B490870F3
:10089000394804F06DFB44F6206108443849096882
:1008A000401A3849086007E0334804F061FB3449D6
:1008B0000968401A3349086000212F4804F0A7F95D
:1008C00030480068B0F57A6F17D92E48006841F2B9
:1008D0008831884211D22C480078092806D12B484B
:1008E00000782B49087001202A4908700120264908
:1008F000087000202549087010BD23480078A0B377
:1009000020480068B0F5E67F13D91E480068B0F5AE
:10091000257F0ED21C480078401C1B4908701B48DC
:1009200000784006000E19490870084600780870E3
:100930001BE01448006840F22C61884215D9114828
:10094000006840F2F46188420FD20F480078401CE2
:100950000D4908700D4800784006000E0B490870DC
:100960000846007840F00100087004F0ADFD00BFBB
:10097000C2E70000000802400004004071000020AF
:10098000680000206C00002070000020640000203F
:1009900065000020660000202DE9F04105460E4666
:1009A0000024F848056045600020F6490872487246
:1009B0000846867200BF06E0F348015DF1480B303F
:1009C0000155601C84B2B442F6DBEE49EF4803F0F7
:1009D00093F80746002401E0601C84B23946EB48D6
:1009E00003F022F918B940F6FF708442F4DB40F6B8
:1009F000FF70844202DB0120BDE8F0810020FBE7AC
:100A00002DE9F04106460F4615469846069CDE48FD
:100A1000077001464D70280A8870084680F80380E8
:100A20000C71200A4871200C8871200EC87106F5DF
:100A3000C0600821FFF7B0FF032001F0B1FE0120E4
:100A4000BDE8F08170B504460D462F20CE490870F0
:100A50006020487088700020C8700846057100202A
:100A600048718871C87104F5C0600821FFF794FFD0
:100A7000052001F095FE012070BD10B5044601204F
:100A8000C14908700846447002210020FFF784FF26
:100A9000052001F085FE012010BD08B50120FFF7FB
:100AA000ECFF0320FFF7E9FF03210120FFF7CAFF56
:100AB00003210846FFF7C6FF43F69820002346F2BD
:100AC0008302232100900120FFF79AFF43F698202C
:100AD000002346F28402232100900120FFF790FFBB
:100AE00043F69820002346F283022321009003203E
:100AF000FFF786FF43F69820002346F28402232165
:100B000000900320FFF77CFF0020034646F2FF021F
:100B1000232100900120FFF773FF0020034646F2D7
:100B2000FF02232100900320FFF76AFF0620002325
:100B300046F240022B2100900120FFF761FF0720C1
:100B4000002346F240022B2100900120FFF758FFBE
:100B50000F20002346F240022B2100900120FFF7D6
:100B60004FFF0620002346F240022B210090032075
:100B7000FFF746FF0720002346F240022B2100909A
:100B80000320FFF73DFF0F20002346F240022B21F8
:100B900000900320FFF734FF08BD00B589B00121A4
:100BA000084602F099FA0121480602F0DEFA4FF4F5
:100BB000C050079002208DF8200000208DF8220000
:100BC00003208DF8210001208DF8230007A970482B
:100BD00001F0E4FF09220B216D4802F06AF80922B6
:100BE0000C216B4802F065F800208DF806008DF8A6
:100BF00007008DF8080001208DF8090000208DF80D
:100C00000A008DF80B008DF802008DF80300062015
:100C10008DF8040005208DF805000320ADF80000D4
:100C200069465A4802F0EFFD00208DF816008DF855
:100C3000170001208DF818004BF22000ADF80C00D1
:100C40000020ADF80E004BF22000ADF8100000209F
:100C5000ADF81200ADF8140001208DF8190003A8BA
:100C600002F05BFE01208DF8160000208DF81700C1
:100C700001208DF818004EF22000ADF80C00002085
:100C8000ADF80E004EF22000ADF810000020ADF8D7
:100C90001200ADF8140001208DF8190003A802F02D
:100CA0003CFE02208DF8160000208DF81700012070
:100CB0008DF818004FF48150ADF80C000020ADF80D
:100CC0000E004FF48150ADF810000020ADF8120076
:100CD000ADF8140001208DF8190003A802F01DFEE4
:100CE000FFF7DBFE002009B000BD10B5002127484A
:100CF00003F07AF800B910BD264A0021234802F01B
:100D0000F0FF002405E023480B30005D2249085520
:100D1000641C2048807AA042F5D81E48807A1F497A
:100D200008701C4800881E49088001201D49087071
:100D30001B480088812802D101201B4908701B48EC
:100D4000006840F20171884215D115480088891C5D
:100D5000884210D100BFBFF34F8F1548006800F4E0
:100D6000E06014490843001D11490860BFF34F8F2C
:100D700000BF00BFFEE70A4800880C49086000BFBA
:100D8000B9E70000EC080020840000200064004067
:100D900000000240000900208C0000209400002088
:100DA000960000209800002046000020AC000020A3
:100DB0000CED00E00000FA05F8B506460F461446B3
:100DC0001D4640F2DC50844201DD044603E05E48EB
:100DD000844200DA044640F2DC50854201DD0546DB
:100DE00003E05948854200DA0546002346F2FF0237
:100DF000232101200094FFF703FE002346F2FF02A7
:100E0000232103200095FFF7FBFDF8BD08B507205F
:100E1000002346F240022B2100900120FFF7F0FD55
:100E20000720002346F240022B2100900320FFF709
:100E3000E7FD08BD08B50620002346F240022B213D
:100E400000900120FFF7DCFD0720002346F240025E
:100E50002B2100900120FFF7D3FD0F20002346F245
:100E600040022B2100900120FFF7CAFD062000233D
:100E700046F240022B2100900320FFF7C1FD07201E
:100E8000002346F240022B2100900320FFF7B8FD1B
:100E90000F20002346F240022B2100900320FFF791
:100EA000AFFD08BD08B50020034646F263024021AD
:100EB00000900120FFF7A4FDFFF717FF23480079FA
:100EC0002249497940EA01202049897940EA0140D4
:100ED0001E49C97940EA01601D490880084600881A
:100EE00008BD08B50020034646F263024021009089
:100EF0000320FFF785FDFFF7F8FE1448007913493A
:100F0000497940EA01201149897940EA01400F49B5
:100F1000C97940EA01600E4908800846008808BD8A
:100F200008B50020034646F2FF022321009001206D
:100F3000FFF766FD0020034646F2FF0223210090E2
:100F40000320FFF75DFD08BD24FAFFFF8C000020A1
:100F5000A80000202DE9F047FD480068002801DBCB
:100F6000012404E0FA480068002800DA0024F94867
:100F70000068002801DB002504E0F648006800282E
:100F800000DA0125DFF8C883D8F800C0BCF1000FF3
:100F900001DBE04601E0CCF1000804F5887909EBBB
:100FA0002849DFF8AC83D8F80060002E01DBB0469A
:100FB00001E0C6F1000809EB2829DFF89483D8F88E
:100FC0000030002B01DB984601E0C3F10008C84463
:100FD00008EB0509DFF87C83D8F80020002A01DB44
:100FE000904601E0C2F1000809EB2849DFF864836C
:100FF000D8F80010002901DB884601E0C1F10008A3
:1010000009EB2829DFF84C83D8F80000002801DB21
:10101000804601E0C0F10008C84408F0FF078020C6
:1010200001F0F5FB902001F0F2FB204601F0EFFB10
:10103000C7490E68002E01DB314600E07142C1F362
:10104000074001F0E4FBC2490E68002E01DB314687
:1010500000E07142C1F3072001F0D9FBBC490E68E2
:10106000002E01DB314600E07142C8B201F0CFFB37
:10107000284601F0CCFBB7490E68002E01DB314653
:1010800000E07142C1F3074001F0C1FBB1490E68B5
:10109000002E01DB314600E07142C1F3072001F070
:1010A000B6FBAC490E68002E01DB314600E0714210
:1010B000C8B201F0ACFB384601F0A9FBBDE8F087EF
:1010C00010B5A5480088A5490988401AA0490860BC
:1010D000A3480088A3490988401A9E4908609C4992
:1010E0000868002801DB014600E04142B1F57A7F43
:1010F00003DD9D4800689649086096490868002805
:1011000001DB014600E04142B1F57A7F03DD9748FB
:10111000006890490860FFF71DFF8D4800689249FC
:1011200008608C4800689149086010BD10B58B4874
:10113000008889490988401A8549086089480088DB
:1011400087490988401A834908608149086800284E
:1011500001DB014600E04142B1F57A7F03DD8248C0
:1011600000687B4908607B490868002801DB01466C
:1011700000E04142B1F57A7F03DD7C4800687549A3
:101180000860FFF7E7FE7248006877490860714819
:1011900000687649086010BDDFED751AB0EE401AA0
:1011A00000EEA11ABDEEC11A724880ED001AB1EE30
:1011B000401ADFED6F1A00EEA11ABDEEC11A6E489B
:1011C00080ED001A704700B56C48007800F5887013
:1011D0006A49497808446949897808446749C9785F
:1011E00008446649097908446449497908446349CF
:1011F000897908446149C97908446149087061489E
:101200000078012857D15D48007A0978884252D188
:101210005D480078F0BB59480078002803DD0120C4
:101220005A49086003E04FF0FF30584908605348BE
:101230000079002804DD4FF0FF305549086002E0D6
:101240000120534908604D48C0784C49897840EAEC
:1012500001204A49497840EA01404C49096848431D
:1012600096214843382190FBF1F0424908604348F9
:10127000C0794249897940EA01204049497940EAE8
:10128000014043490968484396214843382190FB6F
:10129000F1F000E002E038490860B3E03D48007832
:1012A000401C3C4908706FF06300324908606420BC
:1012B00031490860A6E038480078012847D137480E
:1012C00000687F3836490860364800687F383649FC
:1012D000086033480068354909684942884208DD9A
:1012E0002F48006831490968884202DA00202C49F9
:1012F00008602D4800682D4909684942884208DD88
:101300002948006829490968884202DA00202649EC
:101310000860234800682649096848430F2190FB6C
:10132000F1F000EE100AB8EEC00A224880ED000A83
:101330001D48006840421E49096848430A2190FB45
:10134000F1F000EE100AB8EEC00A1B4836E059E092
:101350001400002018000020B2000020B600002079
:10136000B4000020B8000020BC000020C000002015
:10137000CDCC8C3E3C000020400000209801002095
:10138000D80000200600002004000020C400002037
:10139000C8000020030000200700002024000020D7
:1013A000CC00002020000020D0000020D40000202D
:1013B000100000200C0000200800002080ED000A32
:1013C00090ED000AB5EEC00AF1EE10FA06D23448EC
:1013D00090ED000AB1EE400A80ED000A304890ED31
:1013E000001ADFED301A21EE211AF0EE410A2E48E4
:1013F00090ED001ADFED2D1A21EE211AB0EE410A10
:10140000FFF7CAFE00BD70B504460D4628480078B7
:10141000012803D027480078012801D1FFF7D3FE27
:101420002548007801280CD124480068002808DDF0
:1014300023480068002804DA0020214908601F4979
:1014400008601F4803681D48002102680846FFF72E
:10145000B3FC1C48007808B9012000E000201949BD
:1014600008700846007850B1FFF71CFD1649088047
:10147000FFF737FD15490880FFF758FE70BD11488A
:10148000007850B9FFF70EFD11490880FFF729FDDC
:1014900010490880FFF714FEF0E700BFEEE70000F8
:1014A0000C000020F016B03F080000207AC7493F2A
:1014B0000600002007000020010000203C00002062
:1014C00040000020B0000020B6000020B80000203E
:1014D000B2000020B40000201CB50121084601F034
:1014E000FBFD0220009000208DF8040003208DF801
:1014F000050001208DF8070069460B4801F04EFBFE
:101500001CBD0A48007838B10948006820B900209D
:10151000064908700120704705480068012801D17C
:10152000024908700020F6E700000240D9000020C0
:101530000402404270B504460D460021204602F0E8
:101540001DFF00BF204602F066FF0028FAD12946A1
:10155000204602F034FF0121204602F00FFF70BD4B
:1015600010B503F096FF40F22441FE4802F0E8F87F
:1015700080B1FC480088FB48001D00880021FA4823
:1015800002F0FCFEF949F84802F0CCFFF849F648B1
:1015900002F0C8FFF7480178F348FFF7CBFF03F0EC
:1015A00093FF10BD10B596B004460121084601F026
:1015B00093FD0121480401F0D8FD0121480501F007
:1015C0008BFD07220221EC4801F073FB0722032167
:1015D000E94801F06EFB0C20149002208DF85400B5
:1015E00003208DF8550000208DF8560001208DF85D
:1015F000570014A9E04801F0D1FA402014900120CE
:101600008DF8540003208DF8550000208DF8560009
:1016100001208DF8570014A9D74801F0BFFA1094A3
:101620000020ADF84400ADF84600ADF84800ADF834
:101630004C000C20ADF84A0010A9CA4801F007FF81
:101640000121C84801F08BFF26208DF83C000120C5
:101650008DF83D008DF83E008DF83F000FA801F099
:10166000ACF9012240F22441BE4802F02EF80122DA
:101670004021BC4802F020F80121BA4801F06FFF78
:10168000B94802F09FFD00BFB74802F0C4FE002831
:10169000FAD14FF000600090B248001D0190B748A9
:1016A000029000200390B348007804900020059039
:1016B0004FF48060069000200790089009904FF446
:1016C00000300A9000200B9003200C9000200D9019
:1016D0000E906946A44802F017FE0121A24802F0CC
:1016E0004DFE0020A649086016B010BD70B5044636
:1016F0000D460120A24908600020A249087011E0AF
:1017000000BF4021974802F005F80028F9D09D4815
:101710000078215C934801F04DFF9A480078401C06
:101720009849087097480078A842E9DB00BF40213B
:101730008C4801F0EFFF0028F9D0002090490860A4
:1017400070BD10B5044690480068401C8E49086082
:10175000A04233D107218D48FFF7C8FF8748C07DDD
:1017600023280BDD01208A49086000208949C1F83F
:10177000BC0201208649091D08601CE07F48C07D2D
:1017800014280ADA0120824908608249C1F8BC02A3
:1017900000207F49091D08600DE07848C07D23289E
:1017A00009DA01207A49086000207A49C1F8BC02B0
:1017B0007749091D086000207349086010BD00B515
:1017C0008FB002206F4908700DE06C486D490978B0
:1017D000405C7149098808446F490880694800786D
:1017E000401C68490870674800781F28EDDB6A488C
:1017F0000088C043401C68490880604890F8201069
:10180000C07F01EB002064490988884276D15B489B
:101810004078032804D0042847D0052844D18AE022
:101820005648C0795D490870544880795C49087011
:101830005CA006F0DBFA51484279007902EB002007
:1018400000EB8000410060A006F0D0FA5448007818
:10185000C00978B163A006F0C9FA51480078C043C6
:10186000401C4F4908704D480078C043401C4B490C
:1018700008700DE04A480078C00948B94748007828
:1018800018B15BA006F0B2FA02E056A006F0AEFA7C
:1018900043480078414A127802EB002000EB8000B8
:1018A000410056A006F0A2FA44E13EA006F09EFADE
:1018B00032484279007902EB002157A006F096FAEF
:1018C0002E48C279807902EB00215AA006F08EFAE8
:1018D0002A48427A007A02EB00215DA006F086FADF
:1018E0002648C27A807A02EB002160A006F07EFAD8
:1018F0002248427B007B02EB002100E01BE162A05A
:1019000006F074FA1D48C27B807B02EB002165A0C3
:1019100006F06CFA1948427C007C02EB002168A0BA
:1019200006F064FA1548C27C807C02EB00216BA0B3
:1019300006F05CFAFEE01BA006F058FA0F48C07CE7
:101940000E49897C0D4A527C0C4B1B7CCDE90A3236
:10195000CDE90C100948C07B0849897B074A527BB6
:10196000064BC9E000440040886002400088002027
:1019700000220020DC00002000000240A101002025
:1019800098024042E1000020EC000020E20000202C
:10199000A802414200004042DE000020EA00002090
:1019A000E90000202A2A2A2A2A2A2A2A2A2A2A2A36
:1019B0002A2A2A2A2A2A2A2A2A2A2A2A2A2A2A2A87
:1019C0002A2A2A2A0D0A0000D7DCB5E7D1B92D2D25
:1019D0002D2D2D2D2D2D2D2D3E3E202564206D5697
:1019E0000D0A0000B7C5B5E7D6D00D0A000000000B
:1019F000B3E4B5E7D6D00D0A00000000B5E720201B
:101A0000C1F72D2D2D2D2D2D2D2D2D2D3E3E20259B
:101A100064206D410D0A0000B5E7B3D8B4AE5F3164
:101A20002D2D2D2D2D2D2D2D3E3E202564206D5646
:101A30000D0A0000B5E7B3D8B4AE5F322D2D2D2DC1
:101A40002D2D2D2D3E3E202564206D560D0A0000C3
:101A5000B5E7B3D8B4AE5F332D2D2D2D2D2D2D2D03
:101A60003E3E202564206D560D0A0000B5E7B3D830
:101A7000B4AE5F342D2D2D2D2D2D2D2D3E3E202548
:101A800064206D560D0A0000B5E7B3D8B4AE5F35DB
:101A90002D2D2D2D2D2D2D2D3E3E202564206D56D6
:101AA0000D0A0000B5E7B3D8B4AE5F362D2D2D2D4D
:101AB0002D2D2D2D3E3E202564206D560D0A000053
:101AC000B5E7B3D8B4AE5F372D2D2D2D2D2D2D2D8F
:101AD0003E3E202564206D560D0A0000B5E7B3D8C0
:101AE000B4AE5F382D2D2D2D2D2D2D2D3E3E2025D4
:101AF00064206D560D0A00001B7BCDE90632CDE94E
:101B000008100F48C17A807A0D4A527A0C4B1B7A22
:101B1000CDE90232CDE904010948C0790849897943
:101B2000CDE90010064843790279017905A006F055
:101B30005DF900BF00BF0020114908800FB000BD53
:101B4000A1010020B5E7B3D8B0E6B1BED0C5CFA2A1
:101B50002D2D2D2D2D2D2D2D3E3E2025632563254C
:101B60006325632563256325632563256325632535
:101B7000632563256325632563256325630D0A00BB
:101B8000DE0000201CB50121052001F0A5FA4FF46C
:101B90004060009001208DF8040000208DF80600C0
:101BA00003208DF8050001208DF8070069461048D4
:101BB00000F0F4FF4FF440610D4801F06DF84FF470
:101BC0000040009001208DF8040000208DF80600F0
:101BD00003208DF8050001208DF8070069460548AF
:101BE00000F0DCFF4FF40041024801F055F81CBD45
:101BF00000080240000002401CB50121022001F053
:101C00006BFAC020009001208DF8040000208DF8B0
:101C1000060003208DF8050001208DF807006946B5
:101C2000B24800F0BBFF0120B1490860B149C1F8DA
:101C30009C021CBD10B5AD48006820F44040AB4983
:101C400008600846006840F4804008600120A84908
:101C5000091D0860A748D0F81C0208B9002010BD73
:101C60000120A349086000F071FD0020A149C1F8DE
:101C70009C029F487C38006808B10020EFE70120F3
:101C800000F064FD00209A4908600120E7E710B5E4
:101C90009648006820F4404094490860084600686F
:101CA00040F4804008600020914908609149C1F8E3
:101CB0009C02012000F04AFD01208D4908608D49F9
:101CC000C1F89C0200F042FD10BD10B50024874809
:101CD000006820F4404085490860084600680860B4
:101CE00001208349091D086000F030FD0120814971
:101CF000C1F8980200F02AFD0AE0601CC4B2C82CAA
:101D000003DDFFF7C4FF002010BD012000F01EFD21
:101D100077487C3800680028EFD1754908600120B9
:101D2000F2E710B50020724908607048006820F49E
:101D300040406E4908600846006840F480400860F2
:101D400000206C49C1F89C02012000F0FFFC01203A
:101D50006749086000F0FAFC00206649C1F8980263
:101D600010BD10B50020624908606048006820F48A
:101D700040405E4908600846006840F480400860C2
:101D800001205C49C1F89C0200F0E0FC01205849A8
:101D9000086000F0DBFC00205649C1F8980210BD35
:101DA00070B504465148006820F440404F4908602F
:101DB0000846006840F48040086000204C490860F4
:101DC000002516E0E0094A49091D08606006040E76
:101DD000012000F0BBFC01204649C1F8980200F048
:101DE000B5FC002042490860012000F0AFFC681CEF
:101DF000C5B2082DE6DB70BD2DE9F04105460E4663
:101E00001746FFF717FF10B90120BDE8F0816906FA
:101E1000080EFFF7C5FFFFF758FF18B9FFF737FFA8
:101E20000120F2E700240AE0385DFFF7B9FFFFF771
:101E30004CFF18B9FFF72BFF0020E6E7641CB44203
:101E4000F2DBFFF724FF0020DFE770B50546002432
:101E50002648006820F4404024490860084600688D
:101E60000860002616E0002021490860022000F0EA
:101E70006DFC01201F49C1F898026006040E1C4841
:101E80007C38006808B1601CC4B2022000F05EFC1F
:101E9000701CC6B2082EE6DB15B1FFF742FF01E069
:101EA000FFF75FFF204670BD70B506460C4615462D
:101EB000FFF7C0FEFFF7BEFE08B9012070BD01218B
:101EC00001EB4601C8B2FFF76BFFFFF7FEFE06E02D
:101ED0000120FFF7BAFF28706D1C601EC4B2002CF1
:101EE000F6D1FFF7D4FE0020E8E70000000402402E
:101EF000988240420080404238B50446012000905C
:101F00000020FC494870012000902DE0BDF8000041
:101F1000204018B10120F849086002E00020F6498D
:101F200008600120F5490860052000F00FFC002042
:101F3000F349C1F8A402052000F008FC0120F04993
:101F4000C1F8A402EF48D0F8300230B1E948407837
:101F5000BDF800100843E7494870BDF800004FF68F
:101F6000FF7101EA40000090BDF80000FF28CDDDC0
:101F7000102000F0EBFB38BD10B50020DF49091F31
:101F80000860102000F0E2FB0120FFF7B5FF4320BE
:101F9000FFF7B2FF0020FFF7AFFF0020FFF7ACFF15
:101FA0005A20FFF7A9FF5A20FFF7A6FF5A20FFF794
:101FB000A3FF5A20FFF7A0FF5A20FFF79DFF012043
:101FC000CF49C1F8A002102000F0C0FB10BD10B531
:101FD0000020CA49091F08600120FFF78DFF442037
:101FE000FFF78AFF0020FFF787FF0120FFF784FF3C
:101FF0000320FFF781FF0020FFF77EFF0020FFF79F
:102000007BFF0020FFF778FF0020FFF775FF01201E
:10201000BB49C1F8A002102000F098FB10BD10B51C
:102020000020B649091F0860102000F08FFB012036
:10203000FFF762FF4320FFF75FFF0020FFF75CFF21
:102040000120FFF759FF0020FFF756FF0020FFF7A0
:1020500053FF0020FFF750FF0020FFF74DFF002047
:10206000FFF74AFF0120A649C1F8A002102000F0A6
:102070006DFB10BD10B50020A049091F086010209D
:1020800000F064FB0120FFF737FF4220FFF734FF29
:102090000020FFF731FF0020FFF72EFF0020FFF7A1
:1020A0002BFF01209649C1F8A002102000F04EFB42
:1020B00010BD10B5FFF7DEFFFFF7DCFFFFF7DAFF1B
:1020C000FFF7ADFFFFF783FFFFF756FF10BD1CB50D
:1020D0000121062001F000F84FF44070009001202B
:1020E0008DF8040000208DF8060003208DF805000F
:1020F00001208DF807006946834800F04FFD4FF43A
:102100004071814800F0C6FD4FF40050009001205E
:102110008DF8040000208DF8060003208DF80500DE
:1021200001208DF807006946784800F037FD4FF42C
:102130000051764800F0AEFD4FF480500090002032
:102140008DF8040003208DF8050001208DF80700AC
:1021500069466E4800F022FDFFF7ABFF1CBD10B5CD
:1021600000206649091F086069490878FFF7C4FE26
:1021700067494878FFF7C0FE01206149C1F8A00215
:102180005C484078732801D1002010BD0120FCE795
:102190001CB5002001900120009000205749091F24
:1021A00008605B490878FFF7A7FE59494878FFF7B0
:1021B000A3FE0220019035E00120009026E00120DE
:1021C0004E490860052000F0C1FA00204C49C1F8D2
:1021D000A402052000F0BAFA01204949C1F8A4027E
:1021E0004848D0F8300250B142489DF80410405C95
:1021F000BDF8001008433F499DF804208854BDF8FD
:1022000000004FF6FF7101EA40000090BDF80000A9
:10221000FF28D4DD102000F099FA9DF80400401C3E
:10222000C0B201909DF804000928C5DB01203349A4
:10223000091F08601CBD002004E000212D4A115434
:10224000411CC8B20928F8DB704710B5FFF7F3FF4F
:10225000FFF79EFF2748C0782649097940EA012008
:102260002C49088000240FE02B4810F81400401E71
:10227000012101FA00F027490988084010B9601CC3
:10228000C0B210BD601CC4B2102CEDDB0020F8E71A
:1022900001461848405C704770B505460C46002062
:1022A0001649091F0860102000F050FA0120FFF7BE
:1022B00023FE4220FFF720FE0020FFF71DFE2846E8
:1022C000FFF71AFE2046FFF717FE0020FFF714FE67
:1022D0000020FFF711FE0020FFF70EFE0020FFF7A1
:1022E0000BFE01200649C1F8A002102000F02EFAD2
:1022F00070BD000014090020B4824042A402414293
:1023000000004142008040420008024000040240B8
:10231000F2000020F0000020F400002010B50020A2
:102320002C490860102000F011FA0120FFF7E4FDAD
:102330004D20FFF7E1FD0020FFF7DEFD0020FFF755
:10234000DBFD0120FFF7D8FD01202349C1F8A002E1
:10235000102000F0FBF910BD10B52048007898B1AE
:102360000720FFF795FF1E4908600820FFF790FF40
:102370001C4908600520FFF78BFF1B4908600620F9
:10238000FFF786FF19490860FFF75FFF18490860EB
:10239000084600680D2804D116480068C01C15497D
:1023A000086014480068962802DD962011490860EC
:1023B0000F4800680F2804D10E480068C01E0D4960
:1023C00008600C480068032802DA03200949086005
:1023D00010BD0000A0024142000041420700002061
:1023E0001C000020200000202400002028000020E5
:1023F0002C000020100000201CB50121042000F05A
:102400006BFE3020009001208DF8040000208DF834
:10241000060003208DF8050001208DF807006946AD
:10242000A74800F0BBFB0120A6490860A649C1F8F7
:1024300094021CBD10B5A248006820F44060A04979
:1024400008600846006840F48060086000209D49EC
:1024500008609D49C1F894020A2000F077F9012034
:10246000984908609849C1F894020A2000F06EF972
:1024700010BD10B50020934908609148006820F411
:1024800040608F4908600846006840F4806008603A
:1024900001208D49C1F894020A2000F057F901206B
:1024A000884908600A2000F051F900208649C1F8E7
:1024B000900210BD10B50020824908608048006875
:1024C00020F440607E4908600846006840F480605F
:1024D000086000207C49C1F894020A2000F036F917
:1024E0000120784908600A2000F030F90020764980
:1024F000C1F8900210BD70B5054600247048006810
:1025000020F440606E4908600846006808600026B4
:1025100016E000206B4908600A2000F017F901203E
:102520006949C1F890026006040E66487C3800686C
:1025300008B1601CC4B2052000F008F9701CC6B2D6
:10254000082EE6DB15B1FFF7B5FF01E0FFF791FFBD
:10255000204670BD10B500245948006820F4406042
:102560005749086008460068086001205549091D60
:102570000860062000F0EAF801205349C1F89002F3
:10258000062000F0E3F807E0601CC4B2FA2C03DD7B
:10259000FFF750FF002010BD4A487C380068002833
:1025A000F2D1484908600120F5E770B50446444877
:1025B000006820F44060424908600846006840F422
:1025C0008060086000203F490860002517E0E009AE
:1025D0003C49091D08606006040E0A2000F0B6F8A8
:1025E00001203949C1F890020A2000F0AFF800201C
:1025F000344908600A2000F0A9F8681CC5B2082D0B
:10260000E5DB70BD10B52E48006820F440602C4911
:1026100008600846006840F480600860012029498D
:10262000091D08602849C1F890020A2000F08EF8C0
:1026300000202449091D08600A2000F087F80020C6
:102640002149C1F89002012010BD70B504460D4625
:102650000026FFF7D7FF2046FFF7A7FFFFF77AFF17
:102660002846FFF7A2FFFFF775FFFFF7CBFF611CBE
:10267000C8B2FFF79AFFFFF76DFF322000F066F84F
:102680000020FFF738FF0646FFF7D4FE304670BD46
:1026900070B506460C461546FFF7B4FF3046FFF707
:1026A00084FFFFF757FF2046FFF77FFFFFF752FF3A
:1026B0002846FFF77AFFFFF74DFFFFF7BBFE70BD1F
:1026C00000080240900241420000414210B502F071
:1026D00033FF10BD10B502F074FF10BD10B50446F5
:1026E000204604F081FE10BD10B53E480078012858
:1026F00005D102F0CEFE03F012F802F0E5FE10BDA7
:1027000070B504466FF0040000F0A4F9E11704EB83
:102710005171C1F3C701344A1170E11704EB5171D3
:10272000CD1041F2883045430520304908804FF0F4
:10273000E020006940F002004FF0E0210861084607
:102740004561006940F00100086170BD2DE9F04766
:10275000074600264FF0E020D0F814902248007879
:1027600007FB00F8FFF7B2FF4FF0E020856911E0AA
:102770004FF0E0208469AC420CD0AC4202D2281B5E
:10278000064403E0A9EB04002844064425464645D8
:1027900000D300E0ECE700BFFFF79CFFBDE8F08747
:1027A00070B504460F480078A0B11148007888B988
:1027B0000E480088844206DB0C48008894FBF0F544
:1027C0002846FFF78BFF0948008894FBF0F100FBD7
:1027D000114084B24FF47A7104FB01F0FFF7B6FFA9
:1027E00070BD00005A0100201401002016010020D5
:1027F0004D01002000BF704700BF544A128802F00C
:102800004002002AF9D0C2B2504B9A8070474F491B
:10281000888000BF4D49098801F040010029F9D0A6
:10282000704710B588B004460121084600F054FCFA
:102830000121102000F0AAFC07220921444800F0E1
:1028400038FA07220A21424800F033FA4FF4C060F8
:10285000069002208DF81C008DF81D0000208DF8D8
:102860001E0001208DF81F0006A9394800F096F9D6
:1028700002940020ADF80C00ADF80E00ADF8100089
:10288000ADF814000C20ADF8120002A92F4800F09A
:10289000DEFD01212D4800F062FE012240F22551AB
:1028A0002A4800F012FF25208DF8040000208DF842
:1028B000050001208DF806008DF8070001A800F042
:1028C0007CF808B010BD10B502F0E3FD40F22551D0
:1028D0001E4800F035FF002835D01E48007820B98A
:1028E0001D480078401C1C49087018488088C4B2F4
:1028F0001A48007868B91A480078902809D1194810
:102900000078802805D1012014490870002016495C
:1029100008701248007801280FD11448124909782C
:10292000445411480078401C0F490870084600784C
:10293000092802D10020094908700948007809498E
:1029400008700748047002F0BFFD10BD0010014080
:1029500000000240060000202101002005000020A8
:102960001F010020200100201E01002098010020EE
:102970000948804709480047FEE7FEE7FEE7FEE713
:10298000FEE7FEE7FEE7FEE7FEE7FEE7044805494F
:10299000054A064B70470000E5050008890100085C
:1029A00080180020801E0020801A0020801A00203D
:1029B00032490143324A1160704770B5002100234B
:1029C0000F22C4781CB32E4C246804F4E064C4F5D0
:1029D000E064C4F30721C1F10404E3B20A4144787E
:1029E0009C40E1B28478144021430C07210E254C11
:1029F00005786155047804F01F050124AC40057882
:102A00006D11AD0005F1E025C5F8004109E004783D
:102A100004F01F050124AC401B4D0678761145F8E3
:102A2000264070BD194A0A400243154B1B1F1A600D
:102A3000704739B1124A121D12680243104B1B1D18
:102A40001A6006E00E4A121D126882430C4B1B1DD1
:102A50001A607047042808D14FF0E021096941F05D
:102A600004014FF0E022116107E04FF0E021096915
:102A700021F004014FF0E022116170470000FA05D7
:102A80000CED00E000E400E080E100E080FFFF1FCB
:102A900010B504469848844208D10121084600F048
:102AA00086FB0021012000F082FB76E093488442FF
:102AB00008D10121022000F07AFB0021022000F061
:102AC00076FB6AE08E48844208D10121042000F0A0
:102AD0006EFB0021042000F06AFB5EE0894884421E
:102AE00008D10121082000F062FB0021082000F03D
:102AF0005EFB52E08448844208D10121102000F09E
:102B000056FB0021102000F052FB46E07F48844233
:102B100008D10121202000F04AFB0021202000F0F4
:102B200046FB3AE07A48844208D10121402000F077
:102B30003EFB0021402000F03AFB2EE07548844225
:102B400008D10121802000F032FB0021802000F01C
:102B50002EFB22E07048844208D10121801500F04C
:102B600026FB0021A01500F022FB16E06B488442F2
:102B700008D10121401500F01AFB0021601500F07A
:102B800016FB0AE06648844207D10121001500F0D7
:102B90000EFB0021201500F00AFB10BDF0B50A461F
:102BA00000210023002400BF3DE0012505FA01F3C8
:102BB000156805EA03049C4234D105684F000326DA
:102BC000BE40B543056015794E00B54006683543F3
:102BD00005601579012D02D01579022D16D1856871
:102BE0004F000326BE40B543856055794E00B54081
:102BF000866835438560456801268E40B54345604B
:102C0000456896798E40B6B235434560C5684F0039
:102C10000326BE40B543C560D5794E00B540C668B1
:102C20003543C560491C1029BFD3F0BD4FF6FF7175
:102C300001600021017141718171C171704708B556
:102C40004FF480320092009A0A430092009AC261C7
:102C5000C161009AC261C2690092C269009208BD56
:102C60000246002013690B400BB1012000E0002058
:102C700070470146086980B27047024600205369D8
:102C80000B400BB1012000E000207047014648696D
:102C900080B2704701837047418370470AB1018356
:102CA00000E0418370474161704742694A40426198
:102CB0007047F0B5002300244D07ED0E02FA05F32E
:102CC000CE1000F1200555F826504E07F70E0F26BE
:102CD000BE40B543CF1000F1200646F82750CE1075
:102CE00000F1200555F8265045EA0304CE1000F106
:102CF000200545F82640F0BD0000024000040240D7
:102D000000080240000C0240001002400014024083
:102D100000180240001C0240002002400024024033
:102D200000280240F948006840F00100F7490860B7
:102D30000020F64908310860F4480068F44908406A
:102D4000F2490860F348091D0860F348EF498431EF
:102D50000860F0481038091D0860EC48006820F44D
:102D60008020EA4908600020E8490C310860E74902
:102D70008C31086070470021E44A921C11701146A2
:102D80000870704710B501460022002300204A1148
:102D9000012A02D1DD4C236808E0022A03D1DB4C72
:102DA0007034236802E0D94C7434236801F01F02A8
:102DB000012494401C400CB1012000E0002010BD13
:102DC00038B5002000900024002500BF3120FFF717
:102DD000D9FF05460098401C00900098B0F5A04F20
:102DE00001D0002DF2D03120FFF7CCFF08B1012433
:102DF00000E00024204638BD01460020C34A106888
:102E000020F0F80040EAC10010607047C349086034
:102E100070470021BD4A703211701170012802D034
:102E200004280AD104E00121B84A7032117005E08B
:102E30000521B64A7032117000E000BF00BF704734
:102E4000B7490860704770B5049C41EA82150126B5
:102E5000C6EB530645EA0645054345EA0465AB4E15
:102E6000361D356070BDAD4908667047820142EA83
:102E70000172A64B84331A607047A8498866704770
:102E800010B5830143EA016343EA02739F4C88341F
:102E9000236010BDA14908677047A049C864704706
:102EA00002460020994B0833186820F0EC6042EA93
:102EB00001031843954B0833186070470246002001
:102EC000924B0833186820F0784042EA0103184317
:102ED0008E4B083318607047014600208B4A083239
:102EE000106820F0030008431060704787480830DE
:102EF000006800F00C00704701460020834A083249
:102F0000106820F0F0000843106070470146002070
:102F10007E4A0832106820F4E05008431060704781
:102F200001460020794A0832106820F4604040EAE7
:102F3000C10010607047F0B5002100220024022576
:102F400000260223714F08373F6807F00C0121B1BA
:102F5000042905D0082937D105E0724F076036E013
:102F6000714F076033E0694F3F1D3F68C7F38056DC
:102F7000664F3F1D3F6807F03F036EB16A4FB7FBD6
:102F8000F3F7DFF888C10CF1040CDCF800C0CCF3D7
:102F9000881C07FB0CF40CE0624FB7FBF3F7DFF87B
:102FA0006CC10CF1040CDCF800C0CCF3881C07FBEE
:102FB0000CF4564F3F1D3F68C7F301477F1C7D004F
:102FC000B4FBF5F7076002E0564F076000BF00BF93
:102FD0004E4F08373F6807F0F0010909534F7A5CFC
:102FE0000768D7404760494F08373F6807F4E0510A
:102FF000890A4E4F7A5C4768D7408760434F08374D
:103000003F6807F46041490B484F7A5C4768D740F6
:10301000C760F0BD002100F44072B2F5407F0AD1D4
:103020003A4A0832116821F4F811414A024011432A
:10303000364A08321160354A70321268C0F30B0309
:103040001A43324B70331A6070473549443908606F
:103050007047334940390860704736490860704707
:1030600001460020294A8C32106820F01F004A1EB9
:103070001043264A8C321060704701460020234AD4
:103080008C32106820F4F8504A1E40EA02201F4A91
:103090008C3210607047014600201C4A8C32106848
:1030A00020F4401008431060704701460020174A82
:1030B0008C32106820F440000843106070470146CD
:1030C0000020124A8C32106820F44030084310600F
:1030D000704719490860704739B10C4A303212689C
:1030E00002430A4B30331A6006E0084A3032126855
:1030F0008243064B30331A607047F9B1034A3432C9
:1031000012680243014B34331A601CE0003802405D
:10311000FFFFF6EA10300024003000200000474294
:10312000800E47420024F40000127A0022010020A1
:10313000FFFCFF0F5C014742E01147428F4A1268D3
:1031400082438E4B1A60704739B18C4A121D126847
:1031500002438A4B1B1D1A6006E0884A121D126842
:103160008243864B1B1D1A60704739B1834A0C326B
:1031700012680243814B0C331A6006E07F4A0C321E
:10318000126882437D4B0C331A60704739B17B4A19
:10319000103212680243794B10331A6006E0774A06
:1031A000103212688243754B10331A60704739B180
:1031B000724A243A12680243704B243B1A6006E0BC
:1031C0006E4A243A126882436C4B243B1A60704763
:1031D00039B16A4A203A12680243684B203B1A60B0
:1031E00006E0664A203A12688243644B203B1A602C
:1031F000704739B1614A1C3A126802435F4B1C3B6D
:103200001A6006E05D4A1C3A126882435B4B1C3B25
:103210001A60704739B1594A143A12680243574B41
:10322000143B1A6006E0554A143A12688243534B25
:10323000143B1A60704739B1504A103A1268024381
:103240004E4B103B1A6006E04C4A103A126882431B
:103250004A4B103B1A60704739B1484A1C32126819
:103260000243464B1C331A6006E0444A1C32126883
:103270008243424B1C331A60704739B13F4A2032B7
:10328000126802433D4B20331A6006E03B4A20326D
:1032900012688243394B20331A60704739B1374A7C
:1032A000243212680243354B24331A6006E0334A55
:1032B000243212688243314B24331A60704739B18B
:1032C0002E4A2C32126802432C4B2C331A6006E033
:1032D0002A4A2C3212688243284B2C331A607047DA
:1032E00039B1264A303212680243244B30331A6017
:1032F00006E0224A303212688243204B30331A6093
:103300007047012808D11D493C31096841F0080186
:103310001A4A3C32116007E018493C31096821F033
:103320000801164A3C321160704739B1134A273AF6
:1033300012780243114B273B1A7006E00F4A273AD6
:10334000127882430D4B273B1A7070470B48403070
:10335000006840F0807009494031086070470146BC
:103360000020064A283A12680A400AB1012000E00B
:1033700000207047014926390870704734380240F0
:1033800010B50446FA48844208D101211020FFF705
:1033900052FF00211020FFF74EFF57E0F54884420E
:1033A00009D101214804FFF735FF00214FF4003017
:1033B000FFF730FF4AE0F048844209D10121880438
:1033C000FFF728FF00214FF48020FFF723FF3DE0A7
:1033D000EA48844209D10121C804FFF71BFF0021FC
:1033E0004FF40020FFF716FF30E0E548844209D192
:1033F00001210805FFF70EFF00214FF48010FFF7B1
:1034000009FF23E0DF48844208D101212020FFF793
:1034100012FF00212020FFF70EFF17E0DA48844258
:1034200009D101218807FFF7F5FE00214FF0804008
:10343000FFF7F0FE0AE0D548844207D1012140059C
:10344000FFF7E8FE00216005FFF7E4FE10BD2DE95F
:10345000FF4705460E460024A14600BFA046B0899E
:1034600000B100BF2C8A24F44054F08804432C821D
:10347000AC8941F20C608443B0883189084371897A
:1034800008430443AC81AC8A24F44074B0890443FB
:10349000AC826846FFF74FFDB548854202D0B94877
:1034A000854202D1DDF80C9001E0DDF80890A88992
:1034B00000F4004040B109EBC90000EB091031688D
:1034C0004900B0FBF1F707E009EBC90000EB091078
:1034D00031688900B0FBF1F76420B7FBF0F004011C
:1034E0002009642101FB1078A88900F4004040B154
:1034F000322000EBC800B0FBF1F000F007000443FD
:1035000008E0322000EB08106421B0FBF1F000F07D
:103510000F0004432C81BDE8FF874FF41651016072
:1035200000218180C18001810C21418100218181A4
:10353000704710B502460020108A20F470600B8896
:103540004C8823438C882343CC8823431843108220
:1035500010BD0021018041808180C180704721B170
:10356000828942F40052828104E082894DF6FF7321
:103570001A4082817047028B02F47F420283028BE1
:103580000A430283704721B1828942F4004282815A
:1035900003E08289C2F30E028281704721B1828AE0
:1035A00042F40062828204E0828A4FF2FF731A4082
:1035B00082827047C1F30802828070470146888882
:1035C000C0F308007047028A4FF6F0731A40028277
:1035D000028A0A430282704721B1828942F00202C4
:1035E000828104E082894FF6FD731A408281704720
:1035F00082894FF2FF731A40828182890A43828155
:103600007047028A4FF6DF731A400282028A0A4329
:103610000282704721B1028A42F48042028204E0B1
:10362000028A4BF6FF731A4002827047818941F08B
:1036300001018181704721B1828A42F008028282B1
:1036400004E0828A4FF6F7731A4082827047028B39
:10365000D2B20283028B42EA01220283704721B177
:10366000828A42F02002828204E0828A4FF6DF736F
:103670001A408282704721B1828A42F0100282820F
:1036800004E0828A4FF6EF731A4082827047828A82
:103690004FF6FB731A408282828A0A438282704705
:1036A00021B1828A42F00202828204E0828A4FF6CD
:1036B000FD731A40828270471AB1838A0B4383825A
:1036C00002E0838A8B4383827047F0B5034600246F
:1036D00000260025002040F66A17B94200D100BF3D
:1036E0001846C1F3421401F01F06012707FA06F538
:1036F000012C01D10C3004E0022C01D1103000E08B
:1037000014301AB107682F43076002E00768AF431F
:103710000760F0BD02460020B1F5007F00D100BF78
:1037200013880B400BB1012000E00020704701F42A
:103730000072B2F5007F00D100BFCA43028070471B
:1037400070B50246002400230025002040F66A16CA
:10375000B14200D100BFC1F3421501F01F030126A1
:1037600006FA03F3012D13D19689334017E00000C8
:10377000001001400044004000480040004C004060
:10378000005000400014014000780040007C0040E0
:10379000022D02D1168A334001E0968A33400C1282
:1037A000012606FA04F41688344013B10CB1012046
:1037B00000E0002070BD10B50022002340F66A141E
:1037C000A14200D100BF0A1201249440A3B2DC43FD
:1037D000048010BD10B50446FE48844209D1012181
:1037E0004806FFF717FD00214FF00070FFF712FDAC
:1037F00008E001218806FFF70DFD00214FF08060F1
:10380000FFF708FD10BD30B5024600200023146804
:1038100024F002041460146844F00104146000E011
:103820005B1C546804F001041CB94FF6FF74A342FA
:10383000F6D1546804F001040CB900206CE08C79D6
:10384000012C04D1146844F08004146003E014686F
:1038500024F080041460CC79012C04D1146844F065
:103860004004146003E0146824F0400414600C7AEF
:10387000012C04D1146844F02004146003E014689F
:1038800024F0200414604C7A012C04D1146844F014
:103890001004146003E0146824F0100414608C7A9F
:1038A000012C04D1146844F00804146003E0146887
:1038B00024F008041460CC7A012C04D1146844F07C
:1038C0000404146003E0146824F0040414608C7889
:1038D000A407CD7844EA05640D7944EA05444D799E
:1038E00044EA05540D886D1E2C43D461146824F0FD
:1038F00001041460002300E05B1C546804F0010420
:103900001CB14FF6FF74A342F6D1546804F00104D1
:103910000CB1002000E0012030BD10B50021837AF9
:10392000012202FA03F1AC4A126842F00102AA4BEA
:103930001A60A94A1C3212688A43A74B1C331A60CA
:10394000027BCAB9A44A0C3212688A43A24B0C33D8
:103950001A604288C38842EA03439F4A4032847A0D
:1039600042F834300288838842EA03439A4A40325C
:10397000847A02EBC4025360027B012A19D1964A71
:103980000C3212680A43944B0C331A604288038845
:1039900042EA0343904A4032847A42F83430C28883
:1039A000838842EA03438C4A4032847A02EBC402A1
:1039B0005360C27A3AB9884A121D12688A43864B0C
:1039C0001B1D1A6006E0844A121D12680A43824BCE
:1039D0001B1D1A60028932B97F4A143212688A4369
:1039E0007D4B14331A600289012A06D17A4A1432B7
:1039F00012680A43784B14331A60427B012A06D1BD
:103A0000754A1C3212680A43734B1C331A60724A9F
:103A1000126822F00102704B1A6010BD0021817102
:103A2000C171017241728172C1728170C1700321D2
:103A300001710221417101210180704766490968C5
:103A400041F00101644A11601146096843F60E72A3
:103A50009143614A11601146096841EA00211160F1
:103A60001146096821F001011160704721B1026817
:103A700042F48032026003E0026822F48032026085
:103A80007047E1B1026842F0800202604FF4C272F6
:103A9000125842F480734FF4C27213504FF4CA723A
:103AA000125842F480734FF4CA7213504FF4D2721A
:103AB000125842F480734FF4D27213501BE0026824
:103AC00022F0800202604FF4C272125822F4807316
:103AD0004FF4C27213504FF4CA72125822F480731A
:103AE0004FF4CA7213504FF4D272125822F48073FA
:103AF0004FF4D2721350704710B5024600209368FD
:103B000003F08063B3F1806F00D110E0936803F09D
:103B10000063B3F1006F01D1012008E0936803F066
:103B20008053B3F1805F01D1022000E0042004281B
:103B300079D002F5C07303EB00131B6803F0010496
:103B400002F5C07303EB00131C600B7A7BB94B7A50
:103B50000C8843EA445302F5C07404EB0014246853
:103B6000234302F5C07404EB0014236010E00B7AC9
:103B70004C6843EAC4034C7A234302F5C07404EB57
:103B800000142468234302F5C07404EB001423607E
:103B90008B7A03F00F038B7202F5C07303EB0013F3
:103BA0005B6823F00F0402F5C07303EB00135C6045
:103BB00002F5C07303EB00135B688C7A234302F5B4
:103BC000C07404EB001463608B7B1C064B7B44EADF
:103BD000034403E000640040006600400B7B44EABD
:103BE0000323CC7A234302F5C07404EB0014A360D2
:103BF0008B7C1C064B7C44EA03440B7C44EA032385
:103C0000CC7B234302F5C07404EB0014E36002F59F
:103C1000C07303EB00131B6843F0010402F5C0738B
:103C200003EB00131C6010BD10B50246002321B148
:103C3000012907D002290FD109E09068F94C00EA68
:103C400004030BE09068F84C00EA040306E0906877
:103C5000F64C00EA040301E0002300BF00BFF44C6F
:103C6000181BA34216D007DC83B16FF080601844A4
:103C700070B1022818D111E0B0F5007F10D0ED4CE2
:103C8000204448B1B0F5003F0ED10BE002230DE017
:103C900000230BE0002309E0002307E0012305E0F7
:103CA000012303E0012301E0002300BF00BFD8B2DD
:103CB00010BD21B1012907D002290FD109E0826886
:103CC00042F0800282600AE0826842F40042826030
:103CD00005E0826842F40002826000E000BF00BF9D
:103CE000704710B500F5D87303EB01131B6803F0A0
:103CF00004031372137A53B900F5D87303EB01135D
:103D00001B6840F2FF7404EA5353136009E000F5A6
:103D1000D87303EB01131B686FF0604404EAD3030C
:103D2000536000F5D87303EB01131B6803F0020323
:103D3000537200F5D87303EB01135B6803F00F03B4
:103D4000937200F5D87303EB01135B681B0AD374FD
:103D500000F5D87303EB01139B68D37200F5D87399
:103D600003EB01139B681C0A147300F5D87303EB73
:103D700001139B681C0C547300F5D87303EB0113FB
:103D80009B681B0E937300F5D87303EB0113DB687C
:103D9000D37300F5D87303EB0113DB681C0A1474AA
:103DA00000F5D87303EB0113DB681C0C547400F5A9
:103DB000D87303EB0113DB681B0E937421B9C3683E
:103DC00043F02003C36003E0036943F02003036171
:103DD00010BD21B9C26842F02002C26003E002694E
:103DE00042F02002026170470246002019B9D368F0
:103DF00003F0030006E0012903D1136903F0030077
:103E000000E00020704710B502460B4600204FF638
:103E1000FF71BBB9146824F0020444F0010414607B
:103E200000E0491E546804F00304012C01D000296D
:103E3000F7D1546804F00304012C01D0002032E0D3
:103E4000012030E0012B13D1146824F00304146026
:103E500000E0491E546804F003040CB10029F8D1B5
:103E6000546804F003040CB100201CE001201AE0A7
:103E7000022B17D1146824F0010444F002041460EA
:103E800000E0491E546804F00304022C01D000290C
:103E9000F7D1546804F00304022C01D0002002E0A2
:103EA000012000E0002010BD014600200A6822F039
:103EB000010242F002020A604A6802F00302022A8A
:103EC00000D10120704701464FF6FF7200200B68B9
:103ED00023F002030B6000E0521E4B6803F0020364
:103EE000022B01D1002AF7D14B6803F00203022B09
:103EF00000D001207047014600208A6902F070005E
:103F00007047014600208A69100E70470146002064
:103F10008A69C2F3074070471AB143690B43436192
:103F200002E043698B434361704710B502460020AD
:103F300001F4700343B19369C1F3130423400BB13F
:103F400001202DE000202BE001F0807343B1536885
:103F5000C1F3130423400BB1012021E000201FE036
:103F600001F0006343B19368C1F3130423400BB124
:103F7000012015E0002013E001F0007343B1D36885
:103F8000C1F3130423400BB1012009E0002007E036
:103F90001369C1F3130423400BB1012000E000209A
:103FA00010BD0022244B994202D10023836111E00D
:103FB000C1F3130201F000730BB1C2600AE001F01B
:103FC00080630BB1026105E001F000630BB1826018
:103FD00000E0426070470246002002EA01030BB194
:103FE000012000E00020704770B504460D46002611
:103FF00060692840002872D0B5F5807F69D01DDC4B
:10400000082D42D006DC012D2DD0022D31D0042DFB
:104010007FD134E0102D3ED0202D42D0402D78D1DC
:1040200045E0000003000004000300080000031046
:10403000000100080001FFF77000F030B5F5004FF7
:1040400061D009DCB5F5007F4AD0B5F5806F4DD061
:10405000B5F5006F5DD150E0B5F5803F2DD0B5F5D9
:10406000003F56D12FE0A0685549FFF7B4FF064640
:1040700051E0E0680321FFF7AEFF06464BE0E06841
:104080000821FFF7A8FF064645E0E0681021FFF78A
:10409000A2FF06463FE020690321FFF79CFF06468A
:1040A00039E020690821FFF796FF064633E02069D2
:1040B0001021FFF790FF06462DE060680821FFF70A
:1040C0008AFF064627E060681021FFF784FF064656
:1040D00021E0A0690121FFF77EFF06461BE01BE0FF
:1040E000A0690221FFF777FF064614E0A0690421CA
:1040F000FFF771FF06460EE00BE0A0697021FFF7A5
:104100006AFF064607E060680421FFF764FF064681
:1041100001E0002600BF00E00026304670BDB1F58A
:10412000007F3AD00FDC202928D006DC01291CD0E2
:1041300004291DD0082940D11DE0402921D0B1F526
:10414000807F3AD126E0B1F5004F31D006DCB1F5E1
:10415000806F25D0B1F5006F2FD124E0B1F5803FFD
:1041600012D0B1F5003F28D111E0154A826025E058
:104170000822C26022E01022C2601FE00822026111
:104180001CE01022026119E00822426016E01022B1
:10419000426013E00422426010E0042242600DE01D
:1041A000042242600AE0002282610422426005E0AB
:1041B000002282610422426000E000BF00BF70471D
:1041C00001010100016821F001010160002101608D
:1041D00041608160C160016121214161DB49884208
:1041E00004D13D21D94A103A91608CE0D749183169
:1041F000884205D14FF47461D44A103A916082E04C
:10420000D2493031884205D14FF47411CF4A103A67
:10421000916078E0CD494831884205D14FF0746112
:10422000CA4A103A91606EE0C8496031884204D1B0
:10423000C749C64A103AD16065E0C449783188421E
:1042400004D1C449C14A103AD1605CE0BF49903101
:10425000884204D1C049BD4A103AD16053E0BB49FD
:10426000A831884205D14FF03D51B84A103AD1608B
:1042700049E0BA49884204D13D21B84A083A116060
:1042800041E0B6491831884205D14FF47461B34A10
:10429000083A116037E0B1493031884205D14FF416
:1042A0007411AE4A083A11602DE0AC494831884299
:1042B00005D14FF07461A94A083A116023E0A7497B
:1042C0006031884204D1A249A44A121F11601AE049
:1042D000A2497831884204D19E49A04A121F116038
:1042E00011E09E499031884204D19B499B4A121F9C
:1042F000116008E09949A831884204D14FF03D513E
:10430000964A121F1160704710B500220268944B44
:104310001A40CC680B6823434C6923438C692343C0
:10432000CC6923430C6A23434C6A23438C6A23439E
:104330004C6B23438C6B23431A430260426922F087
:104340000702D1E90B3423431A4342610B694360EE
:104350004B6883608B68C36010BD002101604160C1
:104360008160C160016141618161C161016241623D
:104370008162C162016341638163704721B1026858
:1043800042F00102026003E0026822F001020260D2
:10439000704721B1026842F40042026003E0026803
:1043A00022F400420260704721B1026842F020020C
:1043B000026003E0026822F0200202607047416060
:1043C00070470146486880B2704722B1036843F4E1
:1043D0000023036003E0036823F40023036001610A
:1043E000704721B1026842F48022026003E0026853
:1043F00022F48022026070470AB1016100E0C160CE
:104400007047014600200A6802F400220AB1012028
:1044100000E000207047014600200A6802F0010217
:104420000AB1012000E000207047014600204A69DF
:1044300002F03800704730B503460A4600200024D9
:10444000464DAB4202D24149103901E0434910398F
:1044500002F000550DB14C6800E00C68414D2C4055
:1044600004EA02050DB1012000E0002030BD024643
:104470003A4B9A4202D23548103801E0374810389A
:1044800001F000531BB1374B0B40C36002E0354BCA
:104490000B408360704710B501F080034BB122B12F
:1044A000436943F08003436103E0436923F08003E1
:1044B000436180290BD02AB1036801F01E04234315
:1044C000036004E0036801F01E04A343036010BD11
:1044D00070B50246002000240025204EB24202D2D0
:1044E0001A4B103B01E01D4B103B1F4E0E4036B1E6
:1044F0001E2606EAD124166806EA040502E056697B
:1045000006F0800501F000560EB15C6800E01C6802
:10451000144E344004EA010616B10DB1012000E04A
:10452000002070BD02460D4B9A4202D20748103857
:1045300001E00A48103801F000531BB1094B0B4051
:10454000C36002E0074B0B4083607047106002407D
:104550003D000020400F002000003D20106402407C
:104560003F801CF07D0F7D0F3C0F3C0F10B50446C3
:10457000FE48844208D101210846FEF75CFE002176
:104580000120FEF758FE9DE0B4F1804F08D10121D3
:104590000846FEF73FFE00210120FEF73BFE91E0BA
:1045A000F348844208D101210220FEF733FE0021A6
:1045B0000220FEF72FFE85E0EE48844208D101215B
:1045C0000420FEF727FE00210420FEF723FE79E0F9
:1045D000E948844208D101210820FEF71BFE002192
:1045E0000820FEF717FE6DE0E448844208D101215F
:1045F0001020FEF70FFE00211020FEF70BFE61E0F9
:10460000DF48844208D101212020FEF703FE00216B
:104610002020FEF7FFFD55E0DA48844208D1012151
:104620000220FEF708FE00210220FEF704FE49E00A
:10463000D548844209D101210804FEF7FCFD002180
:104640004FF48030FEF7F7FD3CE0D048844209D1BA
:1046500001214804FEF7EFFD00214FF40030FEF782
:10466000EAFD2FE0CA48844209D101218804FEF7FF
:10467000E2FD00214FF48020FEF7DDFD22E0C54879
:10468000844208D101214020FEF7C4FD00214020D2
:10469000FEF7C0FD16E0C048844208D10121802009
:1046A000FEF7B8FD00218020FEF7B4FD0AE0BB480C
:1046B000844207D101218015FEF7ACFD0021A01531
:1046C000FEF7A8FD10BD00220288A84B98420ED02C
:1046D000AC4B98420BD0B0F1804F08D0A44B98421D
:1046E00005D0A44B984202D0A34B984204D14FF678
:1046F0008F731A404B881A43A04B984207D0A04BA7
:10470000984204D04FF6FF431A400B891A430280A7
:104710004B68C3620B880385944B984202D0994B37
:10472000984201D18B7A03860123838270474FF030
:10473000FF31416000210180018141808172704719
:104740000185828270470A46002101884FF68F73E7
:10475000194011430180704741627047C162704740
:104760000146486A70470146088D704721B10288AA
:1047700042F00202028004E002884FF6FD731A4004
:104780000280704721B1028842F00402028004E0F6
:1047900002884FF6FB731A400280704721B10288ED
:1047A00042F08002028004E002884FF67F731A40D4
:1047B0000280704702884FF6F7731A400280028821
:1047C0000A430280704702884FF6FF431A40028076
:1047D00002880A430280704721B1028842F0010238
:1047E000028004E002884FF6FE731A400280704790
:1047F00070B5002400220023058C4FF6FE7635406C
:104800000584028C8388048B4FF68F752C40B51E6F
:104810002C400D882C43751E2A408D892A434D88D3
:104820002A43524DA84202D0564DA84213D14FF60A
:10483000F7752A40CD892A434FF6FB752A408D88AB
:104840002A434FF6FF652B404FF6FF552B400D8A4C
:104850002B434D8A2B43838004838D6845630284F8
:1048600070BD70B5002400220023058C4FF6EF7652
:1048700035400584028C8388048B48F6FF752C40F4
:104880004FF6FF452C400D884FF6FF7606EA0525CA
:104890002C434FF6DF752A408D8906EA05152A4319
:1048A0004D8806EA05152A43304DA84202D0354D01
:1048B000A8421DD14FF67F752A40CD894FF6FF766D
:1048C00006EA05152A434FF6BF752A408D8806EA89
:1048D00005152A434FF6FF352B404FF2FF752B404D
:1048E0000D8A06EA85052B434D8A06EA85052B438A
:1048F000838004838D688563028470BD70B5002455
:1049000000220023058C4FF6FF6635400584028C9B
:104910008388848B4FF68F752C404FF6FC752C40A6
:104920000D882C434FF6FF552A408D894FF6FF76B0
:1049300006EA05252A434D8806EA05252A430B4D3C
:10494000A84202D00F4DA84238D14FF2FF752A403D
:10495000CD894FF6FF7606EA05252A434FF6FF3547
:104960002A408D8806EA05252A4319E00000014007
:104970000004004000080040000C0040001000400F
:104980000014004000040140004001400044014088
:104990000048014000180040001C0040002000407A
:1049A0004EF6FF752B404DF6FF752B400D8A06EA3B
:1049B00005152B434D8A06EA05152B438380848316
:1049C0008D68C563028470BD70B500220023002489
:1049D000058C4EF6FF7635400584038C8488828BE7
:1049E00048F6FF752A404FF6FF452A400D884FF6DE
:1049F000FF7606EA05252A434DF6FF752B408D8983
:104A000006EA05352B434D8806EA05352B43FE4D56
:104A1000A84202D0FD4DA84208D14BF6FF752C40AC
:104A20000D8A4FF6FF7606EA85152C438480828333
:104A30008D680564038470BD002101804180818000
:104A400081608181C18101824182704770B50346D6
:104A5000002000241846183001258D40ACB21D8C72
:104A6000A5431D8409B108290AD100EB610005683E
:104A70004FF68F76354005600568154305600FE0F9
:104A80000D1FC5F34E052844056848F6FF763540EE
:104A9000056005684FF6FF7606EA02263543056095
:104AA00070BD4163704781637047C16370470164A3
:104AB00070470A460021018B4FF68F73194011434E
:104AC000018370470A460021018B48F6FF731940A5
:104AD0004FF6FF7303EA02231943018370470A4626
:104AE0000021818B4FF68F731940114381837047EA
:104AF0000A460021818B48F6FF7319404FF6FF7379
:104B000003EA02231943818370470A460021018B7F
:104B10004FF6F77319401143018370470A4600218D
:104B2000018B4FF2FF7319404FF6FF7303EA022324
:104B30001943018370470A460021818B4FF6F773B2
:104B400019401143818370470A460021818B4FF23F
:104B5000FF7319404FF6FF7303EA02231943818361
:104B600070470A460021018B4FF6FB731940114331
:104B7000018370470A460021018B4FF6FF3319402D
:104B80004FF6FF7303EA02231943018370470A4675
:104B90000021818B4FF6FB731940114381837047CD
:104BA0000A460021818B4FF6FF3319404FF6FF7301
:104BB00003EA02231943818370470A460021018BCF
:104BC0004FF67F7319401143018370470A46002155
:104BD000018BC1F30E014FF6FF7303EA0223194361
:104BE000018370470A460021818B4FF67F7319407D
:104BF0001143818370470A460021818BC1F30E0166
:104C00004FF6FF7303EA02231943818370470A4674
:104C10000021018C4FF6FD73194011430184704748
:104C20000A460021018C4FF6F773194011430184A5
:104C300070470A460021018C4FF6DF7319404FF68A
:104C4000FF7303EA02131943018470470A460021E7
:104C5000018C4FF67F7319404FF6FF7303EA02137E
:104C60001943018470470A460021018C4FF6FF5317
:104C700019404FF6FF7303EA02231943018470477A
:104C80000A460021018C4FF2FF7319404FF6FF7363
:104C900003EA02231943018470470A460021018C6C
:104CA0004DF6FF7319404FF6FF7303EA02331943C1
:104CB0000184704730B5002301248C40A3B2048CDA
:104CC0009C430484048C02FA01F5ADB22C430484A5
:104CD00030BD30B5002304248C40A3B2048C9C4327
:104CE0000484048C02FA01F5ADB22C43048430BD77
:104CF000828B4FF2FF331A408283828B4FF6FF7311
:104D000003EA01231A4382837047F0B50C46154627
:104D1000002100220026078C4EF6FF7C07EA0C07D4
:104D20000784818B028C4FF6FF7707EA043640F642
:104D3000FF4739404FF6FF7707EA052739434FF61B
:104D4000FF7707EA0337394345F6FF773A4046F4E1
:104D500080573A4381830284F0BD828B4FF6F37310
:104D60001A408283828B0A4382837047F0B50C46D7
:104D70001546002100220026078C4FF6FF6C07EA3B
:104D80000C070784818B028C4FF6FF7707EA042615
:104D90004FF60C7739404FF6FF7707EA03172F439A
:104DA00039434FF2FF573A4046F480773A438183C4
:104DB0000284F0BD028B4FF2FF331A400283028B54
:104DC0004FF6FF7303EA01231A4302837047F0B5DD
:104DD0000C461546002100220026078C4FF6EF7C7A
:104DE00007EA0C070784018B028C4FF6FF7707EA6E
:104DF000041640F6FF4739404FF6FF7707EA0337BE
:104E000039434FF6FF7703E0000001400004014002
:104E100007EA052739434FF65F773A4046F0100717
:104E20003A4301830284F0BD028B4FF6F3731A40BC
:104E30000283028B0A4302837047F0B50C46154685
:104E400000210022068C4FF6FE773E400684018B3F
:104E5000028C4FF60C7631407E1C06EA03162E4378
:104E600031434FF6F576324044F001063243018378
:104E70000284F0BD70B505460C46208850B92389E0
:104E8000A28861882846FFF7D8FFE1882846FFF707
:104E9000CBFF25E0208804280AD12389A2886188D5
:104EA0002846FFF794FFE1882846FFF783FF17E0C5
:104EB000208808280AD12389A28861882846FFF71C
:104EC00055FFE1882846FFF748FF09E02389A288BB
:104ED00061882846FFF719FFE1882846FFF708FF99
:104EE00070BD002101804180012181800021C180AD
:104EF000018170472DE9F04105460C460026012747
:104F0000608808B9022600E00026A088012801D1A7
:104F1000022700E001272088A0B92389A2886188A0
:104F20002846FFF78AFFE1882846FFF77DFF23899F
:104F30003A4631462846FFF74AFFE1882846FFF700
:104F400039FF13E02389A28861882846FFF73FFFD5
:104F5000E1882846FFF72EFF23893A463146284646
:104F6000FFF76BFFE1882846FFF75EFFBDE8F081A1
:104F70000146486B70470146886B70470146C86B15
:104F800070470146086C70470A884B881A438B8823
:104F90001A43CB881A430B891A434B891A438B89CE
:104FA0001A43A0F84420704700210180418081808D
:104FB000C180018141818181704731B1B0F84420C5
:104FC00042F40042A0F8442005E0B0F84420C2F3C7
:104FD0000E02A0F84420704721B1828842F00402FA
:104FE000828004E082884FF6FB731A40828070470B
:104FF00021B1828842F00102828004E082884FF66B
:10500000FE731A40828070471AB183890B438381F3
:1050100002E083898B438381704781827047024617
:105020000020138A0B400BB1012000E000207047E4
:10503000CA430282704730B5024600200023002494
:10504000158A05EA0103958905EA010413B10CB13B
:10505000012000E0002030BDCA430282704741EACF
:105060000203A0F8483070471AB183890B4383814B
:1050700002E083898B438381704721B1828842F0AB
:105080000802828004E082884FF6F7731A4082801B
:10509000704701894FF6F8721140018170470A4646
:1050A000002101894FF68F73194011430181704728
:1050B00030B504460D4629462046FFF7F0FF20890B
:1050C00040F00700208130BD2DE9F04104460D4637
:1050D00016461F46602D06D13B460122314620462A
:1050E000FFF775FE05E03B46012231462046FFF7FB
:1050F000A4FE29462046FFF7D2FF208940F0070092
:105100002081BDE8F08130B50C4600210189C9B28B
:105110004FF6FF7505EA0325154325432943018111
:1051200030BD2DE9F04105460E461746984600244D
:1051300043463A4631462846FFF7E5FF2C894FF6AD
:10514000F870044044F007044FF68F70044044F0B8
:1051500070042C81BDE8F081F0B504460D4616467A
:105160001F463B46324629462046FFF7CCFF2089A2
:1051700040F480402081F0BD82884FF68F731A4042
:10518000828082880A438280704702894FF6F873D2
:105190001A40028102890A430281704702894FF650
:1051A0007F731A40028102890A4302817047F0B579
:1051B0000C4615461E460021002200230189028B61
:1051C000038C4FF6F877394021434FF6FC473A40BD
:1051D00040F201173A434FF6DD773B404FF6FF7739
:1051E00007EA06172F433B43018102830384F0BD86
:1051F00021B1828842F08002828004E082884FF6EA
:105200007F731A4082807047A0F8501070470000EA
:105210007CB5002514E06946284601F0DBFF064610
:1052200066B9F84850F8254044B1012C06D0D4E9BD
:10523000020100EB810060640198A064681CC5B2A3
:105240003F2DE8D97CBD002400BF02E0282002F0F9
:10525000CBF8ED4800780028F8D0EC4800686421CD
:10526000B0FBF1F0E94908600846006828B9002061
:10527000E7490870FF2001F0EFFF00BF02F050FD8A
:105280000446E4480068E44908600020E1490860F9
:10529000204602F049FDE0480068DC490968B0FB9F
:1052A000F1F0C0F16400DA49087002F04DFCFFF73C
:1052B000AFFF142002F098F8E0E700B587B00320B4
:1052C00000218022D54BCDE90132CDE903104FF604
:1052D000FE703E23D24A0090AFF2950001F093FD9C
:1052E00006AAD0A13E2001F0F7FE07B000BD0024C1
:1052F00000BF00BF02F014FD0446C6480068401C11
:10530000C4490860204602F00FFD02F01CFCF1E7E2
:1053100000B587B0032000218022C64BCDE90132C1
:10532000CDE903104FF6FF703F23C34A0090AFF260
:10533000410001F068FD06AAC0A13F2001F0CCFEAB
:1053400007B000BD04E0002200F8012B4A1E91B214
:105350000029F8D1704770B5C821BC48FFF7F2FFAB
:1053600000230FE0581C85B203EB8300B74901EB23
:10537000800405EB850001EB80060020207066604C
:10538000581C83B2092BEDD303EB8300AF4901EB2B
:1053900080040020207060600846AD49086070BD40
:1053A00070B54FF47C71AB48FFF7CCFF4FF48071C0
:1053B0009448FFF7C7FF002413E0601CC5B2C4EB9C
:1053C000C40000EB4000A34901EB8003C5EBC5001E
:1053D00000EB400001EB80065E619FA0D864601C7A
:1053E000C4B20B2CE9D3C4EBC40000EB40009949D4
:1053F00001EB80030020586197A0D86400209749F2
:10540000086094489649086070BD0021954A117063
:10541000002004E00021944A1154411CC8B208281D
:10542000F8D30021914A1170914A1170914A11608C
:10543000914A1160704700209049086090490870B7
:105440009049087090490870904908709049086028
:1054500070490860704908606C4908606A490870C2
:10546000704710B502F068FBFFF7E5FFFFF7CDFFCF
:10547000FFF796FFFFF76FFF00F0ECFE01F0E3F996
:10548000FFF746FFFFF719FF02F0F3FA02F058FBAF
:1054900010BD7E480078012808D179480078FF289F
:1054A00004D277480078401C7549087070477949E4
:1054B0006C4A1278885C6C49095C764A515C01EB55
:1054C000C0016B4A1170704710B500246F48007816
:1054D000012830D102F024FC04466948007820B14C
:1054E00067480078401E6649087065480078F8B93A
:1054F00064480078E0B9FFF7DAFF42485C49097870
:1055000050F821005B4908605948007857490978EC
:1055100088420DD057480068806B401C5549096887
:1055200088635B480068401C5949086002F018FC19
:10553000204602F0F9FB10BD10B500245348007856
:10554000012811D102F0ECFB04464D48007840B927
:105550004C480078FF2804D24A480078401C49494A
:105560000870204602F0E0FB10BD10B5002402F0E8
:10557000D7FB044642480078F8B942480078E0B9C1
:10558000FFF795FF1F483A49097850F8210039493B
:105590000860374800783549097888420DD0354889
:1055A0000068806B401C334909688863384800688C
:1055B000401C3749086002F0CCFB204602F0B4FBE7
:1055C00010BD10B500243148007801286FD102F0D9
:1055D000A7FB04462B48007880B12A480078401E7B
:1055E000284908700846007848B92548007838B935
:1055F000204602F099FBFFF7B8FF58E054E04FE077
:105600004AE00000380E00204C0100204401002038
:10561000400100205C01002048010020380A0020E1
:10562000340C002075432F4F532D4949205374618A
:1056300074000000380C0020340E002075432F4FFA
:10564000532D49492049646C650000002009002061
:1056500038010020380F00203F0000006C010020BE
:105660006401002051010020520100204F01002060
:105670005001002068010020600100207801002016
:105680004D0100204E0100205B0100205A01002046
:1056900034010020EA800008204602F045FB06E0C5
:1056A000204602F041FB02E0204602F03DFB10BD27
:1056B00010B5EB48007890B9FFF7F9FEE94800789B
:1056C000E9490870E948E749097850F82100E849B4
:1056D000086008460068E749086002F028FB10BD32
:1056E00010B50024022001F07FFE02F019FB0446F1
:1056F0000020E1490860204602F016FB142001F06A
:1057000073FE02F00DFB0446DB480068DB490860CD
:105710000120DB490870204602F006FB10BD70B581
:10572000002602F0E9FA02F0FBFA0646D5480068C6
:10573000401CD4490860304602F0F6FAC8480078A8
:10574000012853D1D048007820B1012804D0022884
:1057500009D103E001250BE0002509E00125012026
:10576000C949087004E001250020C749087000BF3E
:1057700000BF05B970BDC548046833E002F0D0FA37
:105780000646E06A50B3E06A401EE062E06A28BB69
:1057900094F8300000F0370040B114F8300F00F0FA
:1057A000C800207001206070303C02E0002084F8C6
:1057B000310094F8300000F0080078B93434A07853
:1057C000B34909780843B24908702078B149085CA8
:1057D0006178084314F83419AE4A5054646930466D
:1057E00002F0A2FA94F832003F28C7D100BFC1E707
:1057F00040F223107047704710B590F8342001F143
:105800000B039B5C90F83540A34301F10B04A354B8
:1058100023469B5C23B98B7A90F83640A3438B7266
:1058200010BD2DE9F04F05460F4690469946A87ADF
:1058300099490E5C05F10B00805D11F800B00BEB8F
:10584000C60000F0FF0A894850F82A4000202034A2
:10585000E0602760207C20EA0800207484F8119022
:10586000207C203C00F0080068B994F83600884994
:1058700009780843864908708648805D94F8351099
:1058800008438449885529462046FFF7B5FF50460E
:10589000BDE8F08F10B5774A1268D061754A12687A
:1058A00092F8343000F10B02D25C724B1B6893F813
:1058B00035301A436F4B1B6893F8344000F10B03EB
:1058C0001A55827A6B4B1B6893F836301A438272F2
:1058D000684A126892F834106E4A525C654B1B6835
:1058E00093F835309A436B4B5A541A46525C42B97E
:1058F000604A126892F83630654A12789A43644BCF
:105900001A7010BD014600228A72002005E00023B3
:1059100001F10B021354421CD0B20828F7D3704790
:1059200005E011F8013B00F8013B531E9AB2002A32
:10593000F7D170470146002002E0491C421CD0B25A
:105940000A78002AF9D170472DE9F84F05460F462D
:1059500090469946DDE90AAB0020009002F0E0F99C
:1059600000904E480468002C75D0183454F8040C8C
:105970004A490860009802F0D7F944F8187CA576E7
:10598000002020766076606144F814BC44F80CACCA
:1059900044F8108C0C9824F8080C24F8069C00207D
:1059A000E077E810207705F00700E076217F0120FE
:1059B0008840A077E17E0120884060770020606009
:1059C000E060A0602062A0626062E0622063AFF2EB
:1059D00078306063183C002606E0002104F1500096
:1059E00040F82610701CC6B2002EF6D0204602F0F9
:1059F00082F9204602F0A5F802F092F900901B48C7
:105A000040F825402148006860610020A0611F48DF
:105A1000006810B11D48006884611C48046034347B
:105A2000A0781B490978084319490870207819495A
:105A3000085C6178084314F83419164A5054184821
:105A40000078401C16490870009802F06DF900209B
:105A5000BDE8F88FFFE7009802F066F94220F7E70B
:105A60005A010020500100204F010020380E002074
:105A700068010020600100205C010020440100203A
:105A80004C01002078010020700100206C010020F2
:105A90005101002052010020EA800008640100202A
:105AA0005B0100202DE9F05F04460F4691461E463B
:105AB0004FF0000B2078052804D001203070002022
:105AC000BDE8F09F09F0800ABAF1000F04D029F078
:105AD00080094FF0010801E04FF00008002030700D
